{
  "contractName": "Marketplace",
  "abi": [
    {
      "inputs": [],
      "stateMutability": "nonpayable",
      "type": "constructor"
    },
    {
      "anonymous": false,
      "inputs": [
        {
          "indexed": false,
          "internalType": "uint256",
          "name": "id",
          "type": "uint256"
        },
        {
          "indexed": false,
          "internalType": "string",
          "name": "name",
          "type": "string"
        },
        {
          "indexed": false,
          "internalType": "uint256",
          "name": "price",
          "type": "uint256"
        },
        {
          "indexed": false,
          "internalType": "string",
          "name": "imgPath",
          "type": "string"
        },
        {
          "indexed": false,
          "internalType": "address payable",
          "name": "owner",
          "type": "address"
        },
        {
          "indexed": false,
          "internalType": "bool",
          "name": "purchased",
          "type": "bool"
        }
      ],
      "name": "ProductCreated",
      "type": "event"
    },
    {
      "anonymous": false,
      "inputs": [
        {
          "indexed": false,
          "internalType": "uint256",
          "name": "id",
          "type": "uint256"
        },
        {
          "indexed": false,
          "internalType": "string",
          "name": "name",
          "type": "string"
        },
        {
          "indexed": false,
          "internalType": "uint256",
          "name": "price",
          "type": "uint256"
        },
        {
          "indexed": false,
          "internalType": "string",
          "name": "imgPath",
          "type": "string"
        },
        {
          "indexed": false,
          "internalType": "address payable",
          "name": "seller",
          "type": "address"
        },
        {
          "indexed": false,
          "internalType": "address",
          "name": "buyer",
          "type": "address"
        },
        {
          "indexed": false,
          "internalType": "bool",
          "name": "purchased",
          "type": "bool"
        }
      ],
      "name": "ProductPurchased",
      "type": "event"
    },
    {
      "inputs": [],
      "name": "name",
      "outputs": [
        {
          "internalType": "string",
          "name": "",
          "type": "string"
        }
      ],
      "stateMutability": "view",
      "type": "function",
      "constant": true
    },
    {
      "inputs": [],
      "name": "productCount",
      "outputs": [
        {
          "internalType": "uint256",
          "name": "",
          "type": "uint256"
        }
      ],
      "stateMutability": "view",
      "type": "function",
      "constant": true
    },
    {
      "inputs": [
        {
          "internalType": "uint256",
          "name": "",
          "type": "uint256"
        }
      ],
      "name": "products",
      "outputs": [
        {
          "internalType": "uint256",
          "name": "id",
          "type": "uint256"
        },
        {
          "internalType": "string",
          "name": "name",
          "type": "string"
        },
        {
          "internalType": "uint256",
          "name": "price",
          "type": "uint256"
        },
        {
          "internalType": "string",
          "name": "imgPath",
          "type": "string"
        },
        {
          "internalType": "address payable",
          "name": "owner",
          "type": "address"
        },
        {
          "internalType": "bool",
          "name": "purchased",
          "type": "bool"
        }
      ],
      "stateMutability": "view",
      "type": "function",
      "constant": true
    },
    {
      "inputs": [
        {
          "internalType": "string",
          "name": "_name",
          "type": "string"
        },
        {
          "internalType": "uint256",
          "name": "_price",
          "type": "uint256"
        },
        {
          "internalType": "string",
          "name": "_path",
          "type": "string"
        }
      ],
      "name": "createProduct",
      "outputs": [],
      "stateMutability": "nonpayable",
      "type": "function"
    },
    {
      "inputs": [
        {
          "internalType": "uint256",
          "name": "_id",
          "type": "uint256"
        }
      ],
      "name": "purchaseProduct",
      "outputs": [],
      "stateMutability": "payable",
      "type": "function",
      "payable": true
    }
  ],
  "bytecode": "0x608060405234801561001057600080fd5b506040518060400160405280600e81526020017f4d79204d61726b6574706c6163650000000000000000000000000000000000008152506000908051906020019061005c929190610062565b506100ff565b828054600181600116156101000203166002900490600052602060002090601f016020900481019282601f106100a357805160ff19168380011785556100d1565b828001600101855582156100d1579182015b828111156100d05782518255916020019190600101906100b5565b5b5090506100de91906100e2565b5090565b5b808211156100fb5760008160009055506001016100e3565b5090565b6111018061010e6000396000f3fe60806040526004361061004a5760003560e01c806306fdde031461004f57806338e76a03146100df5780637acc0b201461010d578063e0f6ef8714610261578063ff38ec0f1461028c575b600080fd5b34801561005b57600080fd5b506100646103f5565b6040518080602001828103825283818151815260200191508051906020019080838360005b838110156100a4578082015181840152602081019050610089565b50505050905090810190601f1680156100d15780820380516001836020036101000a031916815260200191505b509250505060405180910390f35b61010b600480360360208110156100f557600080fd5b8101908080359060200190929190505050610493565b005b34801561011957600080fd5b506101466004803603602081101561013057600080fd5b8101908080359060200190929190505050610adb565b6040518087815260200180602001868152602001806020018573ffffffffffffffffffffffffffffffffffffffff1681526020018415158152602001838103835288818151815260200191508051906020019080838360005b838110156101ba57808201518184015260208101905061019f565b50505050905090810190601f1680156101e75780820380516001836020036101000a031916815260200191505b50838103825286818151815260200191508051906020019080838360005b83811015610220578082015181840152602081019050610205565b50505050905090810190601f16801561024d5780820380516001836020036101000a031916815260200191505b509850505050505050505060405180910390f35b34801561026d57600080fd5b50610276610c74565b6040518082815260200191505060405180910390f35b34801561029857600080fd5b506103f3600480360360608110156102af57600080fd5b81019080803590602001906401000000008111156102cc57600080fd5b8201836020820111156102de57600080fd5b8035906020019184600183028401116401000000008311171561030057600080fd5b91908080601f016020809104026020016040519081016040528093929190818152602001838380828437600081840152601f19601f820116905080830192505050505050509192919290803590602001909291908035906020019064010000000081111561036d57600080fd5b82018360208201111561037f57600080fd5b803590602001918460018302840111640100000000831117156103a157600080fd5b91908080601f016020809104026020016040519081016040528093929190818152602001838380828437600081840152601f19601f820116905080830192505050505050509192919290505050610c7a565b005b60008054600181600116156101000203166002900480601f01602080910402602001604051908101604052809291908181526020018280546001816001161561010002031660029004801561048b5780601f106104605761010080835404028352916020019161048b565b820191906000526020600020905b81548152906001019060200180831161046e57829003601f168201915b505050505081565b61049b610fba565b600260008381526020019081526020016000206040518060c001604052908160008201548152602001600182018054600181600116156101000203166002900480601f01602080910402602001604051908101604052809291908181526020018280546001816001161561010002031660029004801561055c5780601f106105315761010080835404028352916020019161055c565b820191906000526020600020905b81548152906001019060200180831161053f57829003601f168201915b5050505050815260200160028201548152602001600382018054600181600116156101000203166002900480601f0160208091040260200160405190810160405280929190818152602001828054600181600116156101000203166002900480156106085780601f106105dd57610100808354040283529160200191610608565b820191906000526020600020905b8154815290600101906020018083116105eb57829003601f168201915b505050505081526020016004820160009054906101000a900473ffffffffffffffffffffffffffffffffffffffff1673ffffffffffffffffffffffffffffffffffffffff1673ffffffffffffffffffffffffffffffffffffffff1681526020016004820160149054906101000a900460ff1615151515815250509050600081602001515111801561069d575060008160400151115b61070f576040517f08c379a000000000000000000000000000000000000000000000000000000000815260040180806020018281038252600a8152602001807f496e76616c69642049440000000000000000000000000000000000000000000081525060200191505060405180910390fd5b8060400151341015610789576040517f08c379a00000000000000000000000000000000000000000000000000000000081526004018080602001828103825260178152602001807f496e73756666696369656e742065746865722073656e7400000000000000000081525060200191505060405180910390fd5b8060a0015115610801576040517f08c379a00000000000000000000000000000000000000000000000000000000081526004018080602001828103825260158152602001807f50726f6475637420686173206265656e20736f6c64000000000000000000000081525060200191505060405180910390fd5b60008160800151905033826080019073ffffffffffffffffffffffffffffffffffffffff16908173ffffffffffffffffffffffffffffffffffffffff168152505060018260a0019015159081151581525050816002600085815260200190815260200160002060008201518160000155602082015181600101908051906020019061088d929190611008565b506040820151816002015560608201518160030190805190602001906108b4929190611008565b5060808201518160040160006101000a81548173ffffffffffffffffffffffffffffffffffffffff021916908373ffffffffffffffffffffffffffffffffffffffff16021790555060a08201518160040160146101000a81548160ff0219169083151502179055509050508073ffffffffffffffffffffffffffffffffffffffff166108fc349081150290604051600060405180830381858888f19350505050158015610965573d6000803e3d6000fd5b507f9ae94ad6db0a4b53f75c40a6596f324b1a816dfdb39788e5854f876b6c505f1e8383602001518460400151856060015185876080015160016040518088815260200180602001878152602001806020018673ffffffffffffffffffffffffffffffffffffffff1681526020018573ffffffffffffffffffffffffffffffffffffffff1681526020018415158152602001838103835289818151815260200191508051906020019080838360005b83811015610a2f578082015181840152602081019050610a14565b50505050905090810190601f168015610a5c5780820380516001836020036101000a031916815260200191505b50838103825287818151815260200191508051906020019080838360005b83811015610a95578082015181840152602081019050610a7a565b50505050905090810190601f168015610ac25780820380516001836020036101000a031916815260200191505b50995050505050505050505060405180910390a1505050565b6002602052806000526040600020600091509050806000015490806001018054600181600116156101000203166002900480601f016020809104026020016040519081016040528092919081815260200182805460018160011615610100020316600290048015610b8d5780601f10610b6257610100808354040283529160200191610b8d565b820191906000526020600020905b815481529060010190602001808311610b7057829003601f168201915b505050505090806002015490806003018054600181600116156101000203166002900480601f016020809104026020016040519081016040528092919081815260200182805460018160011615610100020316600290048015610c315780601f10610c0657610100808354040283529160200191610c31565b820191906000526020600020905b815481529060010190602001808311610c1457829003601f168201915b5050505050908060040160009054906101000a900473ffffffffffffffffffffffffffffffffffffffff16908060040160149054906101000a900460ff16905086565b60015481565b6000835111610cf1576040517f08c379a000000000000000000000000000000000000000000000000000000000815260040180806020018281038252601c8152602001807f50726f64756374206e616d652063616e6e6f7420626520626c616e6b0000000081525060200191505060405180910390fd5b60008211610d4a576040517f08c379a00000000000000000000000000000000000000000000000000000000081526004018080602001828103825260268152602001806110a66026913960400191505060405180910390fd5b6001600081548092919060010191905055506040518060c0016040528060015481526020018481526020018381526020018281526020013373ffffffffffffffffffffffffffffffffffffffff16815260200160001515815250600260006001548152602001908152602001600020600082015181600001556020820151816001019080519060200190610ddf929190611008565b50604082015181600201556060820151816003019080519060200190610e06929190611008565b5060808201518160040160006101000a81548173ffffffffffffffffffffffffffffffffffffffff021916908373ffffffffffffffffffffffffffffffffffffffff16021790555060a08201518160040160146101000a81548160ff0219169083151502179055509050507f61ecd7a78d5a27ec4cdfb40c88af4af98e472ef75dce549e20a169b2fe9f6a2f6001548484843360006040518087815260200180602001868152602001806020018573ffffffffffffffffffffffffffffffffffffffff1681526020018415158152602001838103835288818151815260200191508051906020019080838360005b83811015610f0f578082015181840152602081019050610ef4565b50505050905090810190601f168015610f3c5780820380516001836020036101000a031916815260200191505b50838103825286818151815260200191508051906020019080838360005b83811015610f75578082015181840152602081019050610f5a565b50505050905090810190601f168015610fa25780820380516001836020036101000a031916815260200191505b509850505050505050505060405180910390a1505050565b6040518060c0016040528060008152602001606081526020016000815260200160608152602001600073ffffffffffffffffffffffffffffffffffffffff1681526020016000151581525090565b828054600181600116156101000203166002900490600052602060002090601f016020900481019282601f1061104957805160ff1916838001178555611077565b82800160010185558215611077579182015b8281111561107657825182559160200191906001019061105b565b5b5090506110849190611088565b5090565b5b808211156110a1576000816000905550600101611089565b509056fe50726f647563742070726963652073686f756c642062652067726561746572207468616e2030a2646970667358221220be07fdbaf9fc14c1c138b4aaaa471e60543d49755b8640f18db053abf3baf82c64736f6c63430007000033",
  "immutableReferences": {},
  "source": "//SPDX-License-Identifier: MIT\r\npragma solidity 0.7.0;\r\n\r\ncontract Marketplace {\r\n    string public name;\r\n    uint public productCount;\r\n    mapping(uint => Product) public products;\r\n\r\n    struct Product {\r\n        uint id;\r\n        string name;\r\n        uint price;\r\n        string imgPath;\r\n        address payable owner;\r\n        bool purchased;\r\n    }\r\n\r\n    event ProductCreated (\r\n        uint id,\r\n        string name,\r\n        uint price,\r\n        string imgPath,\r\n        address payable owner,\r\n        bool purchased\r\n    );\r\n\r\n    event ProductPurchased (\r\n        uint id,\r\n        string name,\r\n        uint price,\r\n        string imgPath,\r\n        address payable seller,\r\n        address buyer,\r\n        bool purchased\r\n    );\r\n\r\n    constructor() public {\r\n        name = \"My Marketplace\";\r\n    }\r\n\r\n    function createProduct(string memory _name, uint _price, string memory _path) public {\r\n        require(bytes(_name).length > 0, \"Product name cannot be blank\");\r\n        require(_price > 0, \"Product price should be greater than 0\");\r\n\r\n        productCount++;\r\n\r\n        products[productCount] = Product(productCount, _name, _price, _path, msg.sender, false);\r\n\r\n        emit ProductCreated(productCount, _name, _price, _path, msg.sender, false);\r\n    }\r\n\r\n    function purchaseProduct(uint _id) public payable {\r\n        Product memory myProduct = products[_id];\r\n\r\n        require(bytes(myProduct.name).length > 0 && myProduct.price > 0, \"Invalid ID\");\r\n        require(msg.value >= myProduct.price, \"Insufficient ether sent\");\r\n        require(!myProduct.purchased, \"Product has been sold\");\r\n\r\n        address payable seller = myProduct.owner;\r\n        myProduct.owner = msg.sender;\r\n        myProduct.purchased = true;\r\n        products[_id] = myProduct;\r\n        seller.transfer(msg.value);\r\n\r\n        emit ProductPurchased(_id, myProduct.name, myProduct.price, myProduct.imgPath, seller, myProduct.owner, true);\r\n    }\r\n}\r\n",
  "sourcePath": "C:\\Users\\LeafSonata\\Desktop\\Blockchain mini\\New folder\\Marketplace-Dapp\\src\\ethereum\\contracts\\Marketplace.sol",
  "compiler": {
    "name": "solc",
    "version": "0.7.0+commit.9e61f92b.Emscripten.clang"
  },
  "schemaVersion": "3.4.6",
  "updatedAt": "2022-05-06T08:58:47.330Z",
  "networkType": "ethereum",
  "devdoc": {
    "kind": "dev",
    "methods": {},
    "version": 1
  },
  "userdoc": {
    "kind": "user",
    "methods": {},
    "version": 1
  }
}